{
  "_format": "hh-sol-artifact-1",
  "contractName": "Attestation",
  "sourceName": "contracts/Attestation.sol",
  "abi": [
    {
      "anonymous": false,
      "inputs": [
        {
          "indexed": true,
          "internalType": "address",
          "name": "publisher",
          "type": "address"
        },
        {
          "indexed": true,
          "internalType": "address",
          "name": "from",
          "type": "address"
        },
        {
          "indexed": true,
          "internalType": "address",
          "name": "recipient",
          "type": "address"
        },
        {
          "indexed": false,
          "internalType": "uint256",
          "name": "schemaId",
          "type": "uint256"
        },
        {
          "indexed": false,
          "internalType": "string",
          "name": "data",
          "type": "string"
        }
      ],
      "name": "AttestationPublished",
      "type": "event"
    },
    {
      "anonymous": false,
      "inputs": [
        {
          "indexed": true,
          "internalType": "address",
          "name": "previousOwner",
          "type": "address"
        },
        {
          "indexed": true,
          "internalType": "address",
          "name": "newOwner",
          "type": "address"
        }
      ],
      "name": "OwnershipTransferred",
      "type": "event"
    },
    {
      "anonymous": false,
      "inputs": [
        {
          "indexed": false,
          "internalType": "uint256",
          "name": "schemaId",
          "type": "uint256"
        },
        {
          "indexed": true,
          "internalType": "address",
          "name": "creator",
          "type": "address"
        },
        {
          "indexed": true,
          "internalType": "string",
          "name": "keyIndexed",
          "type": "string"
        },
        {
          "indexed": false,
          "internalType": "string",
          "name": "key",
          "type": "string"
        },
        {
          "indexed": true,
          "internalType": "string",
          "name": "schemaTypeIndexed",
          "type": "string"
        },
        {
          "indexed": false,
          "internalType": "string",
          "name": "schemaType",
          "type": "string"
        },
        {
          "indexed": false,
          "internalType": "bytes",
          "name": "definition",
          "type": "bytes"
        }
      ],
      "name": "SchemaRegistered",
      "type": "event"
    },
    {
      "inputs": [],
      "name": "SEMVER",
      "outputs": [
        {
          "internalType": "string",
          "name": "",
          "type": "string"
        }
      ],
      "stateMutability": "view",
      "type": "function"
    },
    {
      "inputs": [
        {
          "internalType": "address",
          "name": "_from",
          "type": "address"
        },
        {
          "internalType": "address",
          "name": "_recipient",
          "type": "address"
        },
        {
          "internalType": "uint256",
          "name": "_schemaId",
          "type": "uint256"
        },
        {
          "internalType": "string",
          "name": "_data",
          "type": "string"
        }
      ],
      "name": "attest",
      "outputs": [],
      "stateMutability": "nonpayable",
      "type": "function"
    },
    {
      "inputs": [
        {
          "internalType": "uint256",
          "name": "_schemaId",
          "type": "uint256"
        },
        {
          "components": [
            {
              "internalType": "address",
              "name": "from",
              "type": "address"
            },
            {
              "internalType": "address",
              "name": "recipient",
              "type": "address"
            },
            {
              "internalType": "string",
              "name": "data",
              "type": "string"
            }
          ],
          "internalType": "struct Attestation.AttestationRecord[]",
          "name": "_attestations",
          "type": "tuple[]"
        }
      ],
      "name": "attestBatch",
      "outputs": [],
      "stateMutability": "nonpayable",
      "type": "function"
    },
    {
      "inputs": [
        {
          "internalType": "uint256",
          "name": "",
          "type": "uint256"
        },
        {
          "internalType": "address",
          "name": "",
          "type": "address"
        },
        {
          "internalType": "address",
          "name": "",
          "type": "address"
        },
        {
          "internalType": "address",
          "name": "",
          "type": "address"
        }
      ],
      "name": "attestations",
      "outputs": [
        {
          "internalType": "string",
          "name": "",
          "type": "string"
        }
      ],
      "stateMutability": "view",
      "type": "function"
    },
    {
      "inputs": [
        {
          "internalType": "address",
          "name": "_publisher",
          "type": "address"
        },
        {
          "internalType": "address",
          "name": "_from",
          "type": "address"
        },
        {
          "internalType": "address",
          "name": "_recipient",
          "type": "address"
        },
        {
          "internalType": "uint256",
          "name": "_schemaId",
          "type": "uint256"
        }
      ],
      "name": "getAttestationData",
      "outputs": [
        {
          "internalType": "string",
          "name": "data",
          "type": "string"
        }
      ],
      "stateMutability": "view",
      "type": "function"
    },
    {
      "inputs": [
        {
          "internalType": "uint256",
          "name": "_schemaId",
          "type": "uint256"
        }
      ],
      "name": "getSchemaById",
      "outputs": [
        {
          "internalType": "uint256",
          "name": "schemaId",
          "type": "uint256"
        },
        {
          "internalType": "address",
          "name": "creator",
          "type": "address"
        },
        {
          "internalType": "string",
          "name": "key",
          "type": "string"
        },
        {
          "internalType": "string",
          "name": "schemaType",
          "type": "string"
        },
        {
          "internalType": "bytes",
          "name": "definition",
          "type": "bytes"
        }
      ],
      "stateMutability": "view",
      "type": "function"
    },
    {
      "inputs": [],
      "name": "owner",
      "outputs": [
        {
          "internalType": "address",
          "name": "",
          "type": "address"
        }
      ],
      "stateMutability": "view",
      "type": "function"
    },
    {
      "inputs": [
        {
          "internalType": "string",
          "name": "_key",
          "type": "string"
        },
        {
          "internalType": "string",
          "name": "_schemaType",
          "type": "string"
        },
        {
          "internalType": "bytes",
          "name": "_definition",
          "type": "bytes"
        }
      ],
      "name": "registerSchema",
      "outputs": [],
      "stateMutability": "nonpayable",
      "type": "function"
    },
    {
      "inputs": [],
      "name": "renounceOwnership",
      "outputs": [],
      "stateMutability": "nonpayable",
      "type": "function"
    },
    {
      "inputs": [
        {
          "internalType": "uint256",
          "name": "",
          "type": "uint256"
        }
      ],
      "name": "schemaIds",
      "outputs": [
        {
          "internalType": "bytes32",
          "name": "",
          "type": "bytes32"
        }
      ],
      "stateMutability": "view",
      "type": "function"
    },
    {
      "inputs": [
        {
          "internalType": "string",
          "name": "",
          "type": "string"
        }
      ],
      "name": "schemaTypes",
      "outputs": [
        {
          "internalType": "uint8",
          "name": "",
          "type": "uint8"
        }
      ],
      "stateMutability": "view",
      "type": "function"
    },
    {
      "inputs": [
        {
          "internalType": "bytes32",
          "name": "",
          "type": "bytes32"
        }
      ],
      "name": "schemas",
      "outputs": [
        {
          "internalType": "uint256",
          "name": "schemaId",
          "type": "uint256"
        },
        {
          "internalType": "address",
          "name": "creator",
          "type": "address"
        },
        {
          "internalType": "string",
          "name": "key",
          "type": "string"
        },
        {
          "internalType": "string",
          "name": "schemaType",
          "type": "string"
        },
        {
          "internalType": "bytes",
          "name": "definition",
          "type": "bytes"
        }
      ],
      "stateMutability": "view",
      "type": "function"
    },
    {
      "inputs": [
        {
          "internalType": "address",
          "name": "newOwner",
          "type": "address"
        }
      ],
      "name": "transferOwnership",
      "outputs": [],
      "stateMutability": "nonpayable",
      "type": "function"
    }
  ],
  "bytecode": "0x60806040523480156200001157600080fd5b5062000032620000266200011760201b60201c565b6200011f60201b60201c565b6000600260405162000044906200023e565b908152602001604051809103902060006101000a81548160ff021916908360ff160217905550600160026040516200007c90620002a5565b908152602001604051809103902060006101000a81548160ff021916908360ff160217905550600280604051620000b3906200030c565b908152602001604051809103902060006101000a81548160ff021916908360ff16021790555060036002604051620000eb9062000373565b908152602001604051809103902060006101000a81548160ff021916908360ff1602179055506200038a565b600033905090565b60008060009054906101000a900473ffffffffffffffffffffffffffffffffffffffff169050816000806101000a81548173ffffffffffffffffffffffffffffffffffffffff021916908373ffffffffffffffffffffffffffffffffffffffff1602179055508173ffffffffffffffffffffffffffffffffffffffff168173ffffffffffffffffffffffffffffffffffffffff167f8be0079c531659141344cd1fd0a4f28419497f9722a3daafe3b4186f6b6457e060405160405180910390a35050565b600081905092915050565b7f435553544f4d0000000000000000000000000000000000000000000000000000600082015250565b600062000226600683620001e3565b91506200023382620001ee565b600682019050919050565b60006200024b8262000217565b9150819050919050565b7f4a534f4e00000000000000000000000000000000000000000000000000000000600082015250565b60006200028d600483620001e3565b91506200029a8262000255565b600482019050919050565b6000620002b2826200027e565b9150819050919050565b7f59414d4c00000000000000000000000000000000000000000000000000000000600082015250565b6000620002f4600483620001e3565b91506200030182620002bc565b600482019050919050565b60006200031982620002e5565b9150819050919050565b7f50524f544f000000000000000000000000000000000000000000000000000000600082015250565b60006200035b600583620001e3565b9150620003688262000323565b600582019050919050565b600062000380826200034c565b9150819050919050565b612357806200039a6000396000f3fe608060405234801561001057600080fd5b50600436106100cf5760003560e01c806370a6b8ea1161008c5780638da5cb5b116100665780638da5cb5b14610228578063ca2adef614610246578063ccb08ae51461027a578063f2fde38b14610296576100cf565b806370a6b8ea146101e457806370a9f11d14610202578063715018a61461021e576100cf565b806302eb2de3146100d457806305d44b5514610104578063204c0ef814610134578063256708e01461016857806332899dbb1461019857806353a389b4146101b4575b600080fd5b6100ee60048036038101906100e99190611259565b6102b2565b6040516100fb9190611350565b60405180910390f35b61011e60048036038101906101199190611372565b610467565b60405161012b91906113b8565b60405180910390f35b61014e60048036038101906101499190611372565b61047f565b60405161015f959493929190611446565b60405180910390f35b610182600480360381019061017d91906115e3565b6106ea565b60405161018f9190611648565b60405180910390f35b6101b260048036038101906101ad9190611704565b610720565b005b6101ce60048036038101906101c991906117ab565b6109c8565b6040516101db9190611350565b60405180910390f35b6101ec610a8f565b6040516101f99190611350565b60405180910390f35b61021c60048036038101906102179190611812565b610ac8565b005b610226610d25565b005b610230610d39565b60405161023d9190611895565b60405180910390f35b610260600480360381019061025b91906118dc565b610d62565b604051610271959493929190611446565b60405180910390f35b610294600480360381019061028f9190611969565b610f50565b005b6102b060048036038101906102ab91906119c9565b610fc0565b005b606060006005600084815260200190815260200160002060008773ffffffffffffffffffffffffffffffffffffffff1673ffffffffffffffffffffffffffffffffffffffff16815260200190815260200160002060008673ffffffffffffffffffffffffffffffffffffffff1673ffffffffffffffffffffffffffffffffffffffff16815260200190815260200160002060008573ffffffffffffffffffffffffffffffffffffffff1673ffffffffffffffffffffffffffffffffffffffff1681526020019081526020016000209050600081805461039090611a25565b9050116103d2576040517f08c379a00000000000000000000000000000000000000000000000000000000081526004016103c990611aa2565b60405180910390fd5b8080546103de90611a25565b80601f016020809104026020016040519081016040528092919081815260200182805461040a90611a25565b80156104575780601f1061042c57610100808354040283529160200191610457565b820191906000526020600020905b81548152906001019060200180831161043a57829003601f168201915b5050505050915050949350505050565b60046020528060005260406000206000915090505481565b60008060608060606000600460008881526020019081526020016000205490506000801b81036104e4576040517f08c379a00000000000000000000000000000000000000000000000000000000081526004016104db90611b0e565b60405180910390fd5b600060036000838152602001908152602001600020905080600001548160010160009054906101000a900473ffffffffffffffffffffffffffffffffffffffff1682600201836003018460040182805461053d90611a25565b80601f016020809104026020016040519081016040528092919081815260200182805461056990611a25565b80156105b65780601f1061058b576101008083540402835291602001916105b6565b820191906000526020600020905b81548152906001019060200180831161059957829003601f168201915b505050505092508180546105c990611a25565b80601f01602080910402602001604051908101604052809291908181526020018280546105f590611a25565b80156106425780601f1061061757610100808354040283529160200191610642565b820191906000526020600020905b81548152906001019060200180831161062557829003601f168201915b5050505050915080805461065590611a25565b80601f016020809104026020016040519081016040528092919081815260200182805461068190611a25565b80156106ce5780601f106106a3576101008083540402835291602001916106ce565b820191906000526020600020905b8154815290600101906020018083116106b157829003601f168201915b5050505050905096509650965096509650505091939590929450565b6002818051602081018201805184825260208301602085012081835280955050505050506000915054906101000a900460ff1681565b610728611043565b6000338460405160200161073d929190611b2e565b60405160208183030381529060405280519060200120905060006003600083815260200190815260200160002060000154146107ae576040517f08c379a00000000000000000000000000000000000000000000000000000000081526004016107a590611baa565b60405180910390fd5b6000806002856040516107c19190611c06565b908152602001604051809103902060009054906101000a900460ff1660ff16146107eb5783610822565b6040518060400160405280600681526020017f435553544f4d00000000000000000000000000000000000000000000000000008152505b905061082e60016110c1565b600061083a60016110d7565b905060006040518060a001604052808381526020013373ffffffffffffffffffffffffffffffffffffffff16815260200188815260200184815260200186815250905080600360008681526020019081526020016000206000820151816000015560208201518160010160006101000a81548173ffffffffffffffffffffffffffffffffffffffff021916908373ffffffffffffffffffffffffffffffffffffffff16021790555060408201518160020190816108f79190611dc9565b50606082015181600301908161090d9190611dc9565b5060808201518160040190816109239190611ef6565b509050508360046000848152602001908152602001600020819055508260405161094d9190611c06565b6040518091039020876040516109639190611c06565b60405180910390203373ffffffffffffffffffffffffffffffffffffffff167f7febc5b4a0b909116ef3a058cb56a0decdd3f5204d28e40c4f51b84f874db334858b888b6040516109b79493929190611fc8565b60405180910390a450505050505050565b60056020528360005260406000206020528260005260406000206020528160005260406000206020528060005260406000206000935093505050508054610a0e90611a25565b80601f0160208091040260200160405190810160405280929190818152602001828054610a3a90611a25565b8015610a875780601f10610a5c57610100808354040283529160200191610a87565b820191906000526020600020905b815481529060010190602001808311610a6a57829003601f168201915b505050505081565b6040518060400160405280600581526020017f302e312e3000000000000000000000000000000000000000000000000000000081525081565b600073ffffffffffffffffffffffffffffffffffffffff168473ffffffffffffffffffffffffffffffffffffffff1614158015610b325750600073ffffffffffffffffffffffffffffffffffffffff168473ffffffffffffffffffffffffffffffffffffffff1614155b610b71576040517f08c379a0000000000000000000000000000000000000000000000000000000008152600401610b689061206e565b60405180910390fd5b6000801b600460008481526020019081526020016000205403610bc9576040517f08c379a0000000000000000000000000000000000000000000000000000000008152600401610bc0906120da565b60405180910390fd5b806005600084815260200190815260200160002060003373ffffffffffffffffffffffffffffffffffffffff1673ffffffffffffffffffffffffffffffffffffffff16815260200190815260200160002060008673ffffffffffffffffffffffffffffffffffffffff1673ffffffffffffffffffffffffffffffffffffffff16815260200190815260200160002060008573ffffffffffffffffffffffffffffffffffffffff1673ffffffffffffffffffffffffffffffffffffffff1681526020019081526020016000209081610ca09190611dc9565b508273ffffffffffffffffffffffffffffffffffffffff168473ffffffffffffffffffffffffffffffffffffffff163373ffffffffffffffffffffffffffffffffffffffff167fd6f2f1f9f00c1a828576c8beb3e28f877873b15b6c42f9936373330add8e4a3a8585604051610d179291906120fa565b60405180910390a450505050565b610d2d611043565b610d3760006110e5565b565b60008060009054906101000a900473ffffffffffffffffffffffffffffffffffffffff16905090565b60036020528060005260406000206000915090508060000154908060010160009054906101000a900473ffffffffffffffffffffffffffffffffffffffff1690806002018054610db190611a25565b80601f0160208091040260200160405190810160405280929190818152602001828054610ddd90611a25565b8015610e2a5780601f10610dff57610100808354040283529160200191610e2a565b820191906000526020600020905b815481529060010190602001808311610e0d57829003601f168201915b505050505090806003018054610e3f90611a25565b80601f0160208091040260200160405190810160405280929190818152602001828054610e6b90611a25565b8015610eb85780601f10610e8d57610100808354040283529160200191610eb8565b820191906000526020600020905b815481529060010190602001808311610e9b57829003601f168201915b505050505090806004018054610ecd90611a25565b80601f0160208091040260200160405190810160405280929190818152602001828054610ef990611a25565b8015610f465780601f10610f1b57610100808354040283529160200191610f46565b820191906000526020600020905b815481529060010190602001808311610f2957829003601f168201915b5050505050905085565b600082829050905060005b81811015610fb9576000848483818110610f7857610f7761212a565b5b9050602002810190610f8a919061215e565b610f9390612210565b9050610fad81600001518260200151888460400151610ac8565b81600101915050610f5b565b5050505050565b610fc8611043565b600073ffffffffffffffffffffffffffffffffffffffff168173ffffffffffffffffffffffffffffffffffffffff1603611037576040517f08c379a000000000000000000000000000000000000000000000000000000000815260040161102e90612295565b60405180910390fd5b611040816110e5565b50565b61104b6111a9565b73ffffffffffffffffffffffffffffffffffffffff16611069610d39565b73ffffffffffffffffffffffffffffffffffffffff16146110bf576040517f08c379a00000000000000000000000000000000000000000000000000000000081526004016110b690612301565b60405180910390fd5b565b6001816000016000828254019250508190555050565b600081600001549050919050565b60008060009054906101000a900473ffffffffffffffffffffffffffffffffffffffff169050816000806101000a81548173ffffffffffffffffffffffffffffffffffffffff021916908373ffffffffffffffffffffffffffffffffffffffff1602179055508173ffffffffffffffffffffffffffffffffffffffff168173ffffffffffffffffffffffffffffffffffffffff167f8be0079c531659141344cd1fd0a4f28419497f9722a3daafe3b4186f6b6457e060405160405180910390a35050565b600033905090565b6000604051905090565b600080fd5b600080fd5b600073ffffffffffffffffffffffffffffffffffffffff82169050919050565b60006111f0826111c5565b9050919050565b611200816111e5565b811461120b57600080fd5b50565b60008135905061121d816111f7565b92915050565b6000819050919050565b61123681611223565b811461124157600080fd5b50565b6000813590506112538161122d565b92915050565b60008060008060808587031215611273576112726111bb565b5b60006112818782880161120e565b94505060206112928782880161120e565b93505060406112a38782880161120e565b92505060606112b487828801611244565b91505092959194509250565b600081519050919050565b600082825260208201905092915050565b60005b838110156112fa5780820151818401526020810190506112df565b60008484015250505050565b6000601f19601f8301169050919050565b6000611322826112c0565b61132c81856112cb565b935061133c8185602086016112dc565b61134581611306565b840191505092915050565b6000602082019050818103600083015261136a8184611317565b905092915050565b600060208284031215611388576113876111bb565b5b600061139684828501611244565b91505092915050565b6000819050919050565b6113b28161139f565b82525050565b60006020820190506113cd60008301846113a9565b92915050565b6113dc81611223565b82525050565b6113eb816111e5565b82525050565b600081519050919050565b600082825260208201905092915050565b6000611418826113f1565b61142281856113fc565b93506114328185602086016112dc565b61143b81611306565b840191505092915050565b600060a08201905061145b60008301886113d3565b61146860208301876113e2565b818103604083015261147a8186611317565b9050818103606083015261148e8185611317565b905081810360808301526114a2818461140d565b90509695505050505050565b600080fd5b600080fd5b7f4e487b7100000000000000000000000000000000000000000000000000000000600052604160045260246000fd5b6114f082611306565b810181811067ffffffffffffffff8211171561150f5761150e6114b8565b5b80604052505050565b60006115226111b1565b905061152e82826114e7565b919050565b600067ffffffffffffffff82111561154e5761154d6114b8565b5b61155782611306565b9050602081019050919050565b82818337600083830152505050565b600061158661158184611533565b611518565b9050828152602081018484840111156115a2576115a16114b3565b5b6115ad848285611564565b509392505050565b600082601f8301126115ca576115c96114ae565b5b81356115da848260208601611573565b91505092915050565b6000602082840312156115f9576115f86111bb565b5b600082013567ffffffffffffffff811115611617576116166111c0565b5b611623848285016115b5565b91505092915050565b600060ff82169050919050565b6116428161162c565b82525050565b600060208201905061165d6000830184611639565b92915050565b600067ffffffffffffffff82111561167e5761167d6114b8565b5b61168782611306565b9050602081019050919050565b60006116a76116a284611663565b611518565b9050828152602081018484840111156116c3576116c26114b3565b5b6116ce848285611564565b509392505050565b600082601f8301126116eb576116ea6114ae565b5b81356116fb848260208601611694565b91505092915050565b60008060006060848603121561171d5761171c6111bb565b5b600084013567ffffffffffffffff81111561173b5761173a6111c0565b5b611747868287016115b5565b935050602084013567ffffffffffffffff811115611768576117676111c0565b5b611774868287016115b5565b925050604084013567ffffffffffffffff811115611795576117946111c0565b5b6117a1868287016116d6565b9150509250925092565b600080600080608085870312156117c5576117c46111bb565b5b60006117d387828801611244565b94505060206117e48782880161120e565b93505060406117f58782880161120e565b92505060606118068782880161120e565b91505092959194509250565b6000806000806080858703121561182c5761182b6111bb565b5b600061183a8782880161120e565b945050602061184b8782880161120e565b935050604061185c87828801611244565b925050606085013567ffffffffffffffff81111561187d5761187c6111c0565b5b611889878288016115b5565b91505092959194509250565b60006020820190506118aa60008301846113e2565b92915050565b6118b98161139f565b81146118c457600080fd5b50565b6000813590506118d6816118b0565b92915050565b6000602082840312156118f2576118f16111bb565b5b6000611900848285016118c7565b91505092915050565b600080fd5b600080fd5b60008083601f840112611929576119286114ae565b5b8235905067ffffffffffffffff81111561194657611945611909565b5b6020830191508360208202830111156119625761196161190e565b5b9250929050565b600080600060408486031215611982576119816111bb565b5b600061199086828701611244565b935050602084013567ffffffffffffffff8111156119b1576119b06111c0565b5b6119bd86828701611913565b92509250509250925092565b6000602082840312156119df576119de6111bb565b5b60006119ed8482850161120e565b91505092915050565b7f4e487b7100000000000000000000000000000000000000000000000000000000600052602260045260246000fd5b60006002820490506001821680611a3d57607f821691505b602082108103611a5057611a4f6119f6565b5b50919050565b7f496e76616c696420696e70757420706172616d73000000000000000000000000600082015250565b6000611a8c6014836112cb565b9150611a9782611a56565b602082019050919050565b60006020820190508181036000830152611abb81611a7f565b9050919050565b7f496e76616c696420536368656d61204964000000000000000000000000000000600082015250565b6000611af86011836112cb565b9150611b0382611ac2565b602082019050919050565b60006020820190508181036000830152611b2781611aeb565b9050919050565b6000604082019050611b4360008301856113e2565b8181036020830152611b558184611317565b90509392505050565b7f536368656d6120616c7265616479206578697374730000000000000000000000600082015250565b6000611b946015836112cb565b9150611b9f82611b5e565b602082019050919050565b60006020820190508181036000830152611bc381611b87565b9050919050565b600081905092915050565b6000611be0826112c0565b611bea8185611bca565b9350611bfa8185602086016112dc565b80840191505092915050565b6000611c128284611bd5565b915081905092915050565b60008190508160005260206000209050919050565b60006020601f8301049050919050565b600082821b905092915050565b600060088302611c7f7fffffffffffffffffffffffffffffffffffffffffffffffffffffffffffffffff82611c42565b611c898683611c42565b95508019841693508086168417925050509392505050565b6000819050919050565b6000611cc6611cc1611cbc84611223565b611ca1565b611223565b9050919050565b6000819050919050565b611ce083611cab565b611cf4611cec82611ccd565b848454611c4f565b825550505050565b600090565b611d09611cfc565b611d14818484611cd7565b505050565b5b81811015611d3857611d2d600082611d01565b600181019050611d1a565b5050565b601f821115611d7d57611d4e81611c1d565b611d5784611c32565b81016020851015611d66578190505b611d7a611d7285611c32565b830182611d19565b50505b505050565b600082821c905092915050565b6000611da060001984600802611d82565b1980831691505092915050565b6000611db98383611d8f565b9150826002028217905092915050565b611dd2826112c0565b67ffffffffffffffff811115611deb57611dea6114b8565b5b611df58254611a25565b611e00828285611d3c565b600060209050601f831160018114611e335760008415611e21578287015190505b611e2b8582611dad565b865550611e93565b601f198416611e4186611c1d565b60005b82811015611e6957848901518255600182019150602085019450602081019050611e44565b86831015611e865784890151611e82601f891682611d8f565b8355505b6001600288020188555050505b505050505050565b60008190508160005260206000209050919050565b601f821115611ef157611ec281611e9b565b611ecb84611c32565b81016020851015611eda578190505b611eee611ee685611c32565b830182611d19565b50505b505050565b611eff826113f1565b67ffffffffffffffff811115611f1857611f176114b8565b5b611f228254611a25565b611f2d828285611eb0565b600060209050601f831160018114611f605760008415611f4e578287015190505b611f588582611dad565b865550611fc0565b601f198416611f6e86611e9b565b60005b82811015611f9657848901518255600182019150602085019450602081019050611f71565b86831015611fb35784890151611faf601f891682611d8f565b8355505b6001600288020188555050505b505050505050565b6000608082019050611fdd60008301876113d3565b8181036020830152611fef8186611317565b905081810360408301526120038185611317565b90508181036060830152612017818461140d565b905095945050505050565b7f5a65726f20616464726573736573206e6f7420616c6c6f776564000000000000600082015250565b6000612058601a836112cb565b915061206382612022565b602082019050919050565b600060208201905081810360008301526120878161204b565b9050919050565b7f496e76616c6964205f736368656d614964000000000000000000000000000000600082015250565b60006120c46011836112cb565b91506120cf8261208e565b602082019050919050565b600060208201905081810360008301526120f3816120b7565b9050919050565b600060408201905061210f60008301856113d3565b81810360208301526121218184611317565b90509392505050565b7f4e487b7100000000000000000000000000000000000000000000000000000000600052603260045260246000fd5b600080fd5b60008235600160600383360303811261217a57612179612159565b5b80830191505092915050565b600080fd5b600080fd5b6000606082840312156121a6576121a5612186565b5b6121b06060611518565b905060006121c08482850161120e565b60008301525060206121d48482850161120e565b602083015250604082013567ffffffffffffffff8111156121f8576121f761218b565b5b612204848285016115b5565b60408301525092915050565b600061221c3683612190565b9050919050565b7f4f776e61626c653a206e6577206f776e657220697320746865207a65726f206160008201527f6464726573730000000000000000000000000000000000000000000000000000602082015250565b600061227f6026836112cb565b915061228a82612223565b604082019050919050565b600060208201905081810360008301526122ae81612272565b9050919050565b7f4f776e61626c653a2063616c6c6572206973206e6f7420746865206f776e6572600082015250565b60006122eb6020836112cb565b91506122f6826122b5565b602082019050919050565b6000602082019050818103600083015261231a816122de565b905091905056fea2646970667358221220607bc738cb9fd1bd820d4045b9ff41b2b29e026e95e9313f9e578376b8e3a6e464736f6c63430008120033",
  "linkReferences": {},
  "deployedLinkReferences": {}
}