{
  "contractName": "Attestation",
  "abi": [
    {
      "anonymous": false,
      "inputs": [
        {
          "indexed": true,
          "internalType": "address",
          "name": "publisher",
          "type": "address"
        },
        {
          "indexed": true,
          "internalType": "address",
          "name": "from",
          "type": "address"
        },
        {
          "indexed": true,
          "internalType": "address",
          "name": "recipient",
          "type": "address"
        },
        {
          "indexed": false,
          "internalType": "uint256",
          "name": "schemaId",
          "type": "uint256"
        },
        {
          "indexed": false,
          "internalType": "bytes",
          "name": "data",
          "type": "bytes"
        }
      ],
      "name": "AttestationPublished",
      "type": "event"
    },
    {
      "anonymous": false,
      "inputs": [
        {
          "indexed": true,
          "internalType": "address",
          "name": "previousOwner",
          "type": "address"
        },
        {
          "indexed": true,
          "internalType": "address",
          "name": "newOwner",
          "type": "address"
        }
      ],
      "name": "OwnershipTransferred",
      "type": "event"
    },
    {
      "anonymous": false,
      "inputs": [
        {
          "indexed": false,
          "internalType": "uint256",
          "name": "schemaId",
          "type": "uint256"
        },
        {
          "indexed": true,
          "internalType": "address",
          "name": "creator",
          "type": "address"
        },
        {
          "indexed": true,
          "internalType": "string",
          "name": "keyIndexed",
          "type": "string"
        },
        {
          "indexed": false,
          "internalType": "string",
          "name": "key",
          "type": "string"
        },
        {
          "indexed": true,
          "internalType": "string",
          "name": "schemaTypeIndexed",
          "type": "string"
        },
        {
          "indexed": false,
          "internalType": "string",
          "name": "schemaType",
          "type": "string"
        },
        {
          "indexed": false,
          "internalType": "bytes",
          "name": "definition",
          "type": "bytes"
        }
      ],
      "name": "SchemaRegistered",
      "type": "event"
    },
    {
      "inputs": [],
      "name": "SEMVER",
      "outputs": [
        {
          "internalType": "string",
          "name": "",
          "type": "string"
        }
      ],
      "stateMutability": "view",
      "type": "function",
      "constant": true
    },
    {
      "inputs": [
        {
          "internalType": "address",
          "name": "",
          "type": "address"
        },
        {
          "internalType": "address",
          "name": "",
          "type": "address"
        },
        {
          "internalType": "address",
          "name": "",
          "type": "address"
        },
        {
          "internalType": "uint256",
          "name": "",
          "type": "uint256"
        }
      ],
      "name": "attestations",
      "outputs": [
        {
          "internalType": "bytes",
          "name": "",
          "type": "bytes"
        }
      ],
      "stateMutability": "view",
      "type": "function",
      "constant": true
    },
    {
      "inputs": [
        {
          "internalType": "uint256",
          "name": "_schemaId",
          "type": "uint256"
        }
      ],
      "name": "getSchemaById",
      "outputs": [
        {
          "internalType": "uint256",
          "name": "schemaId",
          "type": "uint256"
        },
        {
          "internalType": "address",
          "name": "creator",
          "type": "address"
        },
        {
          "internalType": "string",
          "name": "key",
          "type": "string"
        },
        {
          "internalType": "string",
          "name": "schemaType",
          "type": "string"
        },
        {
          "internalType": "bytes",
          "name": "definition",
          "type": "bytes"
        }
      ],
      "stateMutability": "view",
      "type": "function",
      "constant": true
    },
    {
      "inputs": [],
      "name": "owner",
      "outputs": [
        {
          "internalType": "address",
          "name": "",
          "type": "address"
        }
      ],
      "stateMutability": "view",
      "type": "function",
      "constant": true
    },
    {
      "inputs": [
        {
          "internalType": "string",
          "name": "_key",
          "type": "string"
        },
        {
          "internalType": "string",
          "name": "_schemaType",
          "type": "string"
        },
        {
          "internalType": "bytes",
          "name": "_definition",
          "type": "bytes"
        }
      ],
      "name": "registerSchema",
      "outputs": [],
      "stateMutability": "nonpayable",
      "type": "function"
    },
    {
      "inputs": [],
      "name": "renounceOwnership",
      "outputs": [],
      "stateMutability": "nonpayable",
      "type": "function"
    },
    {
      "inputs": [
        {
          "internalType": "uint256",
          "name": "",
          "type": "uint256"
        }
      ],
      "name": "schemaIds",
      "outputs": [
        {
          "internalType": "bytes32",
          "name": "",
          "type": "bytes32"
        }
      ],
      "stateMutability": "view",
      "type": "function",
      "constant": true
    },
    {
      "inputs": [
        {
          "internalType": "string",
          "name": "",
          "type": "string"
        }
      ],
      "name": "schemaTypes",
      "outputs": [
        {
          "internalType": "uint8",
          "name": "",
          "type": "uint8"
        }
      ],
      "stateMutability": "view",
      "type": "function",
      "constant": true
    },
    {
      "inputs": [
        {
          "internalType": "bytes32",
          "name": "",
          "type": "bytes32"
        }
      ],
      "name": "schemas",
      "outputs": [
        {
          "internalType": "uint256",
          "name": "schemaId",
          "type": "uint256"
        },
        {
          "internalType": "address",
          "name": "creator",
          "type": "address"
        },
        {
          "internalType": "string",
          "name": "key",
          "type": "string"
        },
        {
          "internalType": "string",
          "name": "schemaType",
          "type": "string"
        },
        {
          "internalType": "bytes",
          "name": "definition",
          "type": "bytes"
        }
      ],
      "stateMutability": "view",
      "type": "function",
      "constant": true
    },
    {
      "inputs": [
        {
          "internalType": "address",
          "name": "newOwner",
          "type": "address"
        }
      ],
      "name": "transferOwnership",
      "outputs": [],
      "stateMutability": "nonpayable",
      "type": "function"
    },
    {
      "inputs": [
        {
          "internalType": "address",
          "name": "_from",
          "type": "address"
        },
        {
          "internalType": "address",
          "name": "_recipient",
          "type": "address"
        },
        {
          "internalType": "uint256",
          "name": "_schemaId",
          "type": "uint256"
        },
        {
          "internalType": "bytes",
          "name": "_data",
          "type": "bytes"
        }
      ],
      "name": "attest",
      "outputs": [],
      "stateMutability": "nonpayable",
      "type": "function"
    },
    {
      "inputs": [
        {
          "internalType": "uint256",
          "name": "_schemaId",
          "type": "uint256"
        },
        {
          "components": [
            {
              "internalType": "address",
              "name": "from",
              "type": "address"
            },
            {
              "internalType": "address",
              "name": "recipient",
              "type": "address"
            },
            {
              "internalType": "bytes",
              "name": "data",
              "type": "bytes"
            }
          ],
          "internalType": "struct Attestation.AttestationRecord[]",
          "name": "_attestations",
          "type": "tuple[]"
        }
      ],
      "name": "attestBatch",
      "outputs": [],
      "stateMutability": "nonpayable",
      "type": "function"
    },
    {
      "inputs": [
        {
          "internalType": "address",
          "name": "_publisher",
          "type": "address"
        },
        {
          "internalType": "address",
          "name": "_from",
          "type": "address"
        },
        {
          "internalType": "address",
          "name": "_recipient",
          "type": "address"
        },
        {
          "internalType": "uint256",
          "name": "_schemaId",
          "type": "uint256"
        }
      ],
      "name": "getAttestationData",
      "outputs": [
        {
          "internalType": "bytes",
          "name": "data",
          "type": "bytes"
        }
      ],
      "stateMutability": "view",
      "type": "function",
      "constant": true
    }
  ],
  "bytecode": "0x60806040523480156200001157600080fd5b5062000032620000266200011760201b60201c565b6200011f60201b60201c565b6000600260405162000044906200023e565b908152602001604051809103902060006101000a81548160ff021916908360ff160217905550600160026040516200007c90620002a5565b908152602001604051809103902060006101000a81548160ff021916908360ff160217905550600280604051620000b3906200030c565b908152602001604051809103902060006101000a81548160ff021916908360ff16021790555060036002604051620000eb9062000373565b908152602001604051809103902060006101000a81548160ff021916908360ff1602179055506200038a565b600033905090565b60008060009054906101000a900473ffffffffffffffffffffffffffffffffffffffff169050816000806101000a81548173ffffffffffffffffffffffffffffffffffffffff021916908373ffffffffffffffffffffffffffffffffffffffff1602179055508173ffffffffffffffffffffffffffffffffffffffff168173ffffffffffffffffffffffffffffffffffffffff167f8be0079c531659141344cd1fd0a4f28419497f9722a3daafe3b4186f6b6457e060405160405180910390a35050565b600081905092915050565b7f435553544f4d0000000000000000000000000000000000000000000000000000600082015250565b600062000226600683620001e3565b91506200023382620001ee565b600682019050919050565b60006200024b8262000217565b9150819050919050565b7f4a534f4e00000000000000000000000000000000000000000000000000000000600082015250565b60006200028d600483620001e3565b91506200029a8262000255565b600482019050919050565b6000620002b2826200027e565b9150819050919050565b7f59414d4c00000000000000000000000000000000000000000000000000000000600082015250565b6000620002f4600483620001e3565b91506200030182620002bc565b600482019050919050565b60006200031982620002e5565b9150819050919050565b7f50524f544f000000000000000000000000000000000000000000000000000000600082015250565b60006200035b600583620001e3565b9150620003688262000323565b600582019050919050565b600062000380826200034c565b9150819050919050565b612312806200039a6000396000f3fe608060405234801561001057600080fd5b50600436106100cf5760003560e01c806370a6b8ea1161008c5780638da5cb5b116100665780638da5cb5b14610228578063ca2adef614610246578063df617de31461027a578063f2fde38b14610296576100cf565b806370a6b8ea146101e4578063715018a61461020257806378d945ea1461020c576100cf565b806302eb2de3146100d457806305d44b5514610104578063204c0ef814610134578063256708e01461016857806332899dbb146101985780634e4fcbc3146101b4575b600080fd5b6100ee60048036038101906100e99190611259565b6102b2565b6040516100fb9190611350565b60405180910390f35b61011e60048036038101906101199190611372565b610467565b60405161012b91906113b8565b60405180910390f35b61014e60048036038101906101499190611372565b61047f565b60405161015f959493929190611446565b60405180910390f35b610182600480360381019061017d91906115e3565b6106ea565b60405161018f9190611648565b60405180910390f35b6101b260048036038101906101ad9190611704565b610720565b005b6101ce60048036038101906101c99190611259565b6109c8565b6040516101db9190611350565b60405180910390f35b6101ec610a8f565b6040516101f991906117ab565b60405180910390f35b61020a610ac8565b005b6102266004803603810190610221919061182d565b610adc565b005b610230610b4c565b60405161023d919061188d565b60405180910390f35b610260600480360381019061025b91906118d4565b610b75565b604051610271959493929190611446565b60405180910390f35b610294600480360381019061028f9190611901565b610d63565b005b6102b060048036038101906102ab9190611984565b610fc0565b005b60606000600560008773ffffffffffffffffffffffffffffffffffffffff1673ffffffffffffffffffffffffffffffffffffffff16815260200190815260200160002060008673ffffffffffffffffffffffffffffffffffffffff1673ffffffffffffffffffffffffffffffffffffffff16815260200190815260200160002060008573ffffffffffffffffffffffffffffffffffffffff1673ffffffffffffffffffffffffffffffffffffffff168152602001908152602001600020600084815260200190815260200160002090506000818054610390906119e0565b9050116103d2576040517f08c379a00000000000000000000000000000000000000000000000000000000081526004016103c990611a5d565b60405180910390fd5b8080546103de906119e0565b80601f016020809104026020016040519081016040528092919081815260200182805461040a906119e0565b80156104575780601f1061042c57610100808354040283529160200191610457565b820191906000526020600020905b81548152906001019060200180831161043a57829003601f168201915b5050505050915050949350505050565b60046020528060005260406000206000915090505481565b60008060608060606000600460008881526020019081526020016000205490506000801b81036104e4576040517f08c379a00000000000000000000000000000000000000000000000000000000081526004016104db90611ac9565b60405180910390fd5b600060036000838152602001908152602001600020905080600001548160010160009054906101000a900473ffffffffffffffffffffffffffffffffffffffff1682600201836003018460040182805461053d906119e0565b80601f0160208091040260200160405190810160405280929190818152602001828054610569906119e0565b80156105b65780601f1061058b576101008083540402835291602001916105b6565b820191906000526020600020905b81548152906001019060200180831161059957829003601f168201915b505050505092508180546105c9906119e0565b80601f01602080910402602001604051908101604052809291908181526020018280546105f5906119e0565b80156106425780601f1061061757610100808354040283529160200191610642565b820191906000526020600020905b81548152906001019060200180831161062557829003601f168201915b50505050509150808054610655906119e0565b80601f0160208091040260200160405190810160405280929190818152602001828054610681906119e0565b80156106ce5780601f106106a3576101008083540402835291602001916106ce565b820191906000526020600020905b8154815290600101906020018083116106b157829003601f168201915b5050505050905096509650965096509650505091939590929450565b6002818051602081018201805184825260208301602085012081835280955050505050506000915054906101000a900460ff1681565b610728611043565b6000338460405160200161073d929190611ae9565b60405160208183030381529060405280519060200120905060006003600083815260200190815260200160002060000154146107ae576040517f08c379a00000000000000000000000000000000000000000000000000000000081526004016107a590611b65565b60405180910390fd5b6000806002856040516107c19190611bc1565b908152602001604051809103902060009054906101000a900460ff1660ff16146107eb5783610822565b6040518060400160405280600681526020017f435553544f4d00000000000000000000000000000000000000000000000000008152505b905061082e60016110c1565b600061083a60016110d7565b905060006040518060a001604052808381526020013373ffffffffffffffffffffffffffffffffffffffff16815260200188815260200184815260200186815250905080600360008681526020019081526020016000206000820151816000015560208201518160010160006101000a81548173ffffffffffffffffffffffffffffffffffffffff021916908373ffffffffffffffffffffffffffffffffffffffff16021790555060408201518160020190816108f79190611d84565b50606082015181600301908161090d9190611d84565b5060808201518160040190816109239190611eb1565b509050508360046000848152602001908152602001600020819055508260405161094d9190611bc1565b6040518091039020876040516109639190611bc1565b60405180910390203373ffffffffffffffffffffffffffffffffffffffff167f7febc5b4a0b909116ef3a058cb56a0decdd3f5204d28e40c4f51b84f874db334858b888b6040516109b79493929190611f83565b60405180910390a450505050505050565b60056020528360005260406000206020528260005260406000206020528160005260406000206020528060005260406000206000935093505050508054610a0e906119e0565b80601f0160208091040260200160405190810160405280929190818152602001828054610a3a906119e0565b8015610a875780601f10610a5c57610100808354040283529160200191610a87565b820191906000526020600020905b815481529060010190602001808311610a6a57829003601f168201915b505050505081565b6040518060400160405280600581526020017f302e312e3000000000000000000000000000000000000000000000000000000081525081565b610ad0611043565b610ada60006110e5565b565b600082829050905060005b81811015610b45576000848483818110610b0457610b03611fdd565b5b9050602002810190610b169190612011565b610b1f906120c3565b9050610b3981600001518260200151888460400151610d63565b81600101915050610ae7565b5050505050565b60008060009054906101000a900473ffffffffffffffffffffffffffffffffffffffff16905090565b60036020528060005260406000206000915090508060000154908060010160009054906101000a900473ffffffffffffffffffffffffffffffffffffffff1690806002018054610bc4906119e0565b80601f0160208091040260200160405190810160405280929190818152602001828054610bf0906119e0565b8015610c3d5780601f10610c1257610100808354040283529160200191610c3d565b820191906000526020600020905b815481529060010190602001808311610c2057829003601f168201915b505050505090806003018054610c52906119e0565b80601f0160208091040260200160405190810160405280929190818152602001828054610c7e906119e0565b8015610ccb5780601f10610ca057610100808354040283529160200191610ccb565b820191906000526020600020905b815481529060010190602001808311610cae57829003601f168201915b505050505090806004018054610ce0906119e0565b80601f0160208091040260200160405190810160405280929190818152602001828054610d0c906119e0565b8015610d595780601f10610d2e57610100808354040283529160200191610d59565b820191906000526020600020905b815481529060010190602001808311610d3c57829003601f168201915b5050505050905085565b600073ffffffffffffffffffffffffffffffffffffffff168473ffffffffffffffffffffffffffffffffffffffff1614158015610dcd5750600073ffffffffffffffffffffffffffffffffffffffff168473ffffffffffffffffffffffffffffffffffffffff1614155b610e0c576040517f08c379a0000000000000000000000000000000000000000000000000000000008152600401610e0390612122565b60405180910390fd5b6000801b600460008481526020019081526020016000205403610e64576040517f08c379a0000000000000000000000000000000000000000000000000000000008152600401610e5b9061218e565b60405180910390fd5b80600560003373ffffffffffffffffffffffffffffffffffffffff1673ffffffffffffffffffffffffffffffffffffffff16815260200190815260200160002060008673ffffffffffffffffffffffffffffffffffffffff1673ffffffffffffffffffffffffffffffffffffffff16815260200190815260200160002060008573ffffffffffffffffffffffffffffffffffffffff1673ffffffffffffffffffffffffffffffffffffffff16815260200190815260200160002060008481526020019081526020016000209081610f3b9190611eb1565b508273ffffffffffffffffffffffffffffffffffffffff168473ffffffffffffffffffffffffffffffffffffffff163373ffffffffffffffffffffffffffffffffffffffff167fec3576fe16f04f8303e32264333b28007b9e2487f0a2433a84c1c04f6527f7858585604051610fb29291906121ae565b60405180910390a450505050565b610fc8611043565b600073ffffffffffffffffffffffffffffffffffffffff168173ffffffffffffffffffffffffffffffffffffffff1603611037576040517f08c379a000000000000000000000000000000000000000000000000000000000815260040161102e90612250565b60405180910390fd5b611040816110e5565b50565b61104b6111a9565b73ffffffffffffffffffffffffffffffffffffffff16611069610b4c565b73ffffffffffffffffffffffffffffffffffffffff16146110bf576040517f08c379a00000000000000000000000000000000000000000000000000000000081526004016110b6906122bc565b60405180910390fd5b565b6001816000016000828254019250508190555050565b600081600001549050919050565b60008060009054906101000a900473ffffffffffffffffffffffffffffffffffffffff169050816000806101000a81548173ffffffffffffffffffffffffffffffffffffffff021916908373ffffffffffffffffffffffffffffffffffffffff1602179055508173ffffffffffffffffffffffffffffffffffffffff168173ffffffffffffffffffffffffffffffffffffffff167f8be0079c531659141344cd1fd0a4f28419497f9722a3daafe3b4186f6b6457e060405160405180910390a35050565b600033905090565b6000604051905090565b600080fd5b600080fd5b600073ffffffffffffffffffffffffffffffffffffffff82169050919050565b60006111f0826111c5565b9050919050565b611200816111e5565b811461120b57600080fd5b50565b60008135905061121d816111f7565b92915050565b6000819050919050565b61123681611223565b811461124157600080fd5b50565b6000813590506112538161122d565b92915050565b60008060008060808587031215611273576112726111bb565b5b60006112818782880161120e565b94505060206112928782880161120e565b93505060406112a38782880161120e565b92505060606112b487828801611244565b91505092959194509250565b600081519050919050565b600082825260208201905092915050565b60005b838110156112fa5780820151818401526020810190506112df565b60008484015250505050565b6000601f19601f8301169050919050565b6000611322826112c0565b61132c81856112cb565b935061133c8185602086016112dc565b61134581611306565b840191505092915050565b6000602082019050818103600083015261136a8184611317565b905092915050565b600060208284031215611388576113876111bb565b5b600061139684828501611244565b91505092915050565b6000819050919050565b6113b28161139f565b82525050565b60006020820190506113cd60008301846113a9565b92915050565b6113dc81611223565b82525050565b6113eb816111e5565b82525050565b600081519050919050565b600082825260208201905092915050565b6000611418826113f1565b61142281856113fc565b93506114328185602086016112dc565b61143b81611306565b840191505092915050565b600060a08201905061145b60008301886113d3565b61146860208301876113e2565b818103604083015261147a818661140d565b9050818103606083015261148e818561140d565b905081810360808301526114a28184611317565b90509695505050505050565b600080fd5b600080fd5b7f4e487b7100000000000000000000000000000000000000000000000000000000600052604160045260246000fd5b6114f082611306565b810181811067ffffffffffffffff8211171561150f5761150e6114b8565b5b80604052505050565b60006115226111b1565b905061152e82826114e7565b919050565b600067ffffffffffffffff82111561154e5761154d6114b8565b5b61155782611306565b9050602081019050919050565b82818337600083830152505050565b600061158661158184611533565b611518565b9050828152602081018484840111156115a2576115a16114b3565b5b6115ad848285611564565b509392505050565b600082601f8301126115ca576115c96114ae565b5b81356115da848260208601611573565b91505092915050565b6000602082840312156115f9576115f86111bb565b5b600082013567ffffffffffffffff811115611617576116166111c0565b5b611623848285016115b5565b91505092915050565b600060ff82169050919050565b6116428161162c565b82525050565b600060208201905061165d6000830184611639565b92915050565b600067ffffffffffffffff82111561167e5761167d6114b8565b5b61168782611306565b9050602081019050919050565b60006116a76116a284611663565b611518565b9050828152602081018484840111156116c3576116c26114b3565b5b6116ce848285611564565b509392505050565b600082601f8301126116eb576116ea6114ae565b5b81356116fb848260208601611694565b91505092915050565b60008060006060848603121561171d5761171c6111bb565b5b600084013567ffffffffffffffff81111561173b5761173a6111c0565b5b611747868287016115b5565b935050602084013567ffffffffffffffff811115611768576117676111c0565b5b611774868287016115b5565b925050604084013567ffffffffffffffff811115611795576117946111c0565b5b6117a1868287016116d6565b9150509250925092565b600060208201905081810360008301526117c5818461140d565b905092915050565b600080fd5b600080fd5b60008083601f8401126117ed576117ec6114ae565b5b8235905067ffffffffffffffff81111561180a576118096117cd565b5b602083019150836020820283011115611826576118256117d2565b5b9250929050565b600080600060408486031215611846576118456111bb565b5b600061185486828701611244565b935050602084013567ffffffffffffffff811115611875576118746111c0565b5b611881868287016117d7565b92509250509250925092565b60006020820190506118a260008301846113e2565b92915050565b6118b18161139f565b81146118bc57600080fd5b50565b6000813590506118ce816118a8565b92915050565b6000602082840312156118ea576118e96111bb565b5b60006118f8848285016118bf565b91505092915050565b6000806000806080858703121561191b5761191a6111bb565b5b60006119298782880161120e565b945050602061193a8782880161120e565b935050604061194b87828801611244565b925050606085013567ffffffffffffffff81111561196c5761196b6111c0565b5b611978878288016116d6565b91505092959194509250565b60006020828403121561199a576119996111bb565b5b60006119a88482850161120e565b91505092915050565b7f4e487b7100000000000000000000000000000000000000000000000000000000600052602260045260246000fd5b600060028204905060018216806119f857607f821691505b602082108103611a0b57611a0a6119b1565b5b50919050565b7f496e76616c696420696e70757420706172616d73000000000000000000000000600082015250565b6000611a476014836113fc565b9150611a5282611a11565b602082019050919050565b60006020820190508181036000830152611a7681611a3a565b9050919050565b7f496e76616c696420536368656d61204964000000000000000000000000000000600082015250565b6000611ab36011836113fc565b9150611abe82611a7d565b602082019050919050565b60006020820190508181036000830152611ae281611aa6565b9050919050565b6000604082019050611afe60008301856113e2565b8181036020830152611b10818461140d565b90509392505050565b7f536368656d6120616c7265616479206578697374730000000000000000000000600082015250565b6000611b4f6015836113fc565b9150611b5a82611b19565b602082019050919050565b60006020820190508181036000830152611b7e81611b42565b9050919050565b600081905092915050565b6000611b9b826113f1565b611ba58185611b85565b9350611bb58185602086016112dc565b80840191505092915050565b6000611bcd8284611b90565b915081905092915050565b60008190508160005260206000209050919050565b60006020601f8301049050919050565b600082821b905092915050565b600060088302611c3a7fffffffffffffffffffffffffffffffffffffffffffffffffffffffffffffffff82611bfd565b611c448683611bfd565b95508019841693508086168417925050509392505050565b6000819050919050565b6000611c81611c7c611c7784611223565b611c5c565b611223565b9050919050565b6000819050919050565b611c9b83611c66565b611caf611ca782611c88565b848454611c0a565b825550505050565b600090565b611cc4611cb7565b611ccf818484611c92565b505050565b5b81811015611cf357611ce8600082611cbc565b600181019050611cd5565b5050565b601f821115611d3857611d0981611bd8565b611d1284611bed565b81016020851015611d21578190505b611d35611d2d85611bed565b830182611cd4565b50505b505050565b600082821c905092915050565b6000611d5b60001984600802611d3d565b1980831691505092915050565b6000611d748383611d4a565b9150826002028217905092915050565b611d8d826113f1565b67ffffffffffffffff811115611da657611da56114b8565b5b611db082546119e0565b611dbb828285611cf7565b600060209050601f831160018114611dee5760008415611ddc578287015190505b611de68582611d68565b865550611e4e565b601f198416611dfc86611bd8565b60005b82811015611e2457848901518255600182019150602085019450602081019050611dff565b86831015611e415784890151611e3d601f891682611d4a565b8355505b6001600288020188555050505b505050505050565b60008190508160005260206000209050919050565b601f821115611eac57611e7d81611e56565b611e8684611bed565b81016020851015611e95578190505b611ea9611ea185611bed565b830182611cd4565b50505b505050565b611eba826112c0565b67ffffffffffffffff811115611ed357611ed26114b8565b5b611edd82546119e0565b611ee8828285611e6b565b600060209050601f831160018114611f1b5760008415611f09578287015190505b611f138582611d68565b865550611f7b565b601f198416611f2986611e56565b60005b82811015611f5157848901518255600182019150602085019450602081019050611f2c565b86831015611f6e5784890151611f6a601f891682611d4a565b8355505b6001600288020188555050505b505050505050565b6000608082019050611f9860008301876113d3565b8181036020830152611faa818661140d565b90508181036040830152611fbe818561140d565b90508181036060830152611fd28184611317565b905095945050505050565b7f4e487b7100000000000000000000000000000000000000000000000000000000600052603260045260246000fd5b600080fd5b60008235600160600383360303811261202d5761202c61200c565b5b80830191505092915050565b600080fd5b600080fd5b60006060828403121561205957612058612039565b5b6120636060611518565b905060006120738482850161120e565b60008301525060206120878482850161120e565b602083015250604082013567ffffffffffffffff8111156120ab576120aa61203e565b5b6120b7848285016116d6565b60408301525092915050565b60006120cf3683612043565b9050919050565b7f5a65726f20616464726573736573206e6f7420616c6c6f776564000000000000600082015250565b600061210c601a836113fc565b9150612117826120d6565b602082019050919050565b6000602082019050818103600083015261213b816120ff565b9050919050565b7f496e76616c6964205f736368656d614964000000000000000000000000000000600082015250565b60006121786011836113fc565b915061218382612142565b602082019050919050565b600060208201905081810360008301526121a78161216b565b9050919050565b60006040820190506121c360008301856113d3565b81810360208301526121d58184611317565b90509392505050565b7f4f776e61626c653a206e6577206f776e657220697320746865207a65726f206160008201527f6464726573730000000000000000000000000000000000000000000000000000602082015250565b600061223a6026836113fc565b9150612245826121de565b604082019050919050565b600060208201905081810360008301526122698161222d565b9050919050565b7f4f776e61626c653a2063616c6c6572206973206e6f7420746865206f776e6572600082015250565b60006122a66020836113fc565b91506122b182612270565b602082019050919050565b600060208201905081810360008301526122d581612299565b905091905056fea2646970667358221220eeef89ec3a3fa7683a7c35e0c148102a565a84510af859e1ae4b91681717c7f364736f6c63430008120033",
  "immutableReferences": {},
  "source": "// SPDX-License-Identifier: MIT\npragma solidity >=0.8.12 <0.9.0;\n\nimport \"./SchemaRegistry.sol\";\n\n\n/** \n * @title Attestations\n * @notice Contract used to publish attestations.\n * @custom:beta\n */\n contract Attestation is SchemaRegistry {\n  /*\n    * TODO gas optimizations\n    * 1. \n  */\n\n  string public constant SEMVER = \"0.1.0\";\n\n  //Not used for storage. Used just for function calls.\n  struct AttestationRecord {\n    address from; // 20 bytes\n    address recipient; // 20 bytes\n    bytes data;\n  }\n\n// TODO revisit this mapping path after implementing read/publish functions\n/**\n  * @notice Maps Publisher => From => Recipient => Schema ID => Data\n */\n  mapping(address => mapping(address => mapping(address => mapping(uint256 => bytes)))) public attestations;\n\n  // TODO do we need attestation data in the Event ? \n  // Gas costs when emitting events. \n  // We can emit without data and let clients read from blockchain if needed.\n  // Read from blockchain is gas free but may incur API costs from provider (e.g., Alchemy API costs)\n  event AttestationPublished(\n    address indexed publisher,\n    address indexed from,\n    address indexed recipient,\n    uint256 schemaId,\n    bytes data\n  );\n\n  /**\n    * Emits a {AttestationPublished} event.\n    * @dev Currently msg.sender, _from, and _recipient can all be the same address, even another contract address.\n    * @notice Publish an attestation or update if an attestaion is already published. \n    * @param _from Address that is providing the attestation.\n    * @param _recipient Address that the attestation is about.\n    * @param _schemaId Valid schema defined in the Schema registry.\n    * @param _data Attestation data that conforms to the schema.\n    */\n  function attest(\n    address _from,\n    address _recipient,\n    uint256 _schemaId,\n    bytes memory _data\n  ) public {\n    require(\n      _from != address(0) && _from != address(0),\n      \"Zero addresses not allowed\" //26 bytes < 1 slot\n    ); \n    require(schemaIds[_schemaId] != 0x00, \"Invalid _schemaId\");\n    \n    attestations[msg.sender][_from][_recipient][_schemaId] = _data;\n\n    emit AttestationPublished(msg.sender, _from, _recipient, _schemaId, _data);\n  }\n\n  function attestBatch(uint256 _schemaId, AttestationRecord[] calldata _attestations) external {\n    uint256 length = _attestations.length;\n    for (uint256 i = 0; i < length;) {\n      AttestationRecord memory attestation = _attestations[i];\n      attest(attestation.from, attestation.recipient, _schemaId, attestation.data);\n      unchecked {\n        ++i;\n      }\n    }\n  }\n\n  function getAttestationData(    \n    address _publisher,\n    address _from,\n    address _recipient,\n    uint256 _schemaId) \n  external view \n  returns (\n    bytes memory data\n  )\n  {\n    bytes storage _data = attestations[_publisher][_from][_recipient][_schemaId];\n    require(_data.length > 0, \"Invalid input params\");\n    return _data;\n  }\n}",
  "sourcePath": "/Users/pkakelas/workspace/commonprefix/eigentrust/trustmaze/contracts/Attestation.sol",
  "compiler": {
    "name": "solc",
    "version": "0.8.18+commit.87f61d96.Emscripten.clang"
  },
  "schemaVersion": "3.4.12",
  "updatedAt": "2023-03-03T21:27:19.354Z",
  "networkType": "ethereum",
  "devdoc": {
    "custom:beta": "",
    "kind": "dev",
    "methods": {
      "attest(address,address,uint256,bytes)": {
        "details": "Currently msg.sender, _from, and _recipient can all be the same address, even another contract address.",
        "params": {
          "_data": "Attestation data that conforms to the schema.",
          "_from": "Address that is providing the attestation.",
          "_recipient": "Address that the attestation is about.",
          "_schemaId": "Valid schema defined in the Schema registry."
        }
      },
      "owner()": {
        "details": "Returns the address of the current owner."
      },
      "renounceOwnership()": {
        "details": "Leaves the contract without owner. It will not be possible to call `onlyOwner` functions anymore. Can only be called by the current owner. NOTE: Renouncing ownership will leave the contract without an owner, thereby removing any functionality that is only available to the owner."
      },
      "transferOwnership(address)": {
        "details": "Transfers ownership of the contract to a new account (`newOwner`). Can only be called by the current owner."
      }
    },
    "title": "Attestations",
    "version": 1
  },
  "userdoc": {
    "kind": "user",
    "methods": {
      "attest(address,address,uint256,bytes)": {
        "notice": "Emits a {AttestationPublished} event.Publish an attestation or update if an attestaion is already published. "
      },
      "attestations(address,address,address,uint256)": {
        "notice": "Maps Publisher => From => Recipient => Schema ID => Data"
      }
    },
    "notice": "Contract used to publish attestations.",
    "version": 1
  }
}