{
  "_format": "hh-sol-artifact-1",
  "contractName": "Attestation",
  "sourceName": "contracts/Attestation.sol",
  "abi": [
    {
      "anonymous": false,
      "inputs": [
        {
          "indexed": true,
          "internalType": "address",
          "name": "publisher",
          "type": "address"
        },
        {
          "indexed": true,
          "internalType": "address",
          "name": "from",
          "type": "address"
        },
        {
          "indexed": true,
          "internalType": "address",
          "name": "recipient",
          "type": "address"
        },
        {
          "indexed": false,
          "internalType": "uint256",
          "name": "schemaId",
          "type": "uint256"
        },
        {
          "indexed": false,
          "internalType": "string",
          "name": "data",
          "type": "string"
        }
      ],
      "name": "AttestationPublished",
      "type": "event"
    },
    {
      "anonymous": false,
      "inputs": [
        {
          "indexed": true,
          "internalType": "address",
          "name": "previousOwner",
          "type": "address"
        },
        {
          "indexed": true,
          "internalType": "address",
          "name": "newOwner",
          "type": "address"
        }
      ],
      "name": "OwnershipTransferred",
      "type": "event"
    },
    {
      "anonymous": false,
      "inputs": [
        {
          "indexed": false,
          "internalType": "uint256",
          "name": "schemaId",
          "type": "uint256"
        },
        {
          "indexed": true,
          "internalType": "address",
          "name": "creator",
          "type": "address"
        },
        {
          "indexed": false,
          "internalType": "string",
          "name": "key",
          "type": "string"
        },
        {
          "indexed": false,
          "internalType": "enum SchemaRegistry.SchemaType",
          "name": "schemaType",
          "type": "uint8"
        },
        {
          "indexed": false,
          "internalType": "string",
          "name": "definition",
          "type": "string"
        }
      ],
      "name": "SchemaRegistered",
      "type": "event"
    },
    {
      "inputs": [],
      "name": "SEMVER",
      "outputs": [
        {
          "internalType": "string",
          "name": "",
          "type": "string"
        }
      ],
      "stateMutability": "view",
      "type": "function"
    },
    {
      "inputs": [
        {
          "internalType": "address",
          "name": "_from",
          "type": "address"
        },
        {
          "internalType": "address",
          "name": "_recipient",
          "type": "address"
        },
        {
          "internalType": "uint256",
          "name": "_schemaId",
          "type": "uint256"
        },
        {
          "internalType": "string",
          "name": "_data",
          "type": "string"
        }
      ],
      "name": "attest",
      "outputs": [],
      "stateMutability": "nonpayable",
      "type": "function"
    },
    {
      "inputs": [
        {
          "internalType": "uint256",
          "name": "_schemaId",
          "type": "uint256"
        },
        {
          "components": [
            {
              "internalType": "uint256",
              "name": "schemaId",
              "type": "uint256"
            },
            {
              "internalType": "address",
              "name": "publisher",
              "type": "address"
            },
            {
              "internalType": "address",
              "name": "from",
              "type": "address"
            },
            {
              "internalType": "address",
              "name": "recipient",
              "type": "address"
            },
            {
              "internalType": "string",
              "name": "data",
              "type": "string"
            }
          ],
          "internalType": "struct Attestation.AttestationRecord[]",
          "name": "_attestations",
          "type": "tuple[]"
        }
      ],
      "name": "attestBatch",
      "outputs": [],
      "stateMutability": "nonpayable",
      "type": "function"
    },
    {
      "inputs": [
        {
          "internalType": "address",
          "name": "",
          "type": "address"
        },
        {
          "internalType": "uint256",
          "name": "",
          "type": "uint256"
        }
      ],
      "name": "attestationIdxByPublisher",
      "outputs": [
        {
          "internalType": "uint256",
          "name": "",
          "type": "uint256"
        }
      ],
      "stateMutability": "view",
      "type": "function"
    },
    {
      "inputs": [
        {
          "internalType": "uint256",
          "name": "",
          "type": "uint256"
        },
        {
          "internalType": "uint256",
          "name": "",
          "type": "uint256"
        }
      ],
      "name": "attestationIdxBySchemaId",
      "outputs": [
        {
          "internalType": "uint256",
          "name": "",
          "type": "uint256"
        }
      ],
      "stateMutability": "view",
      "type": "function"
    },
    {
      "inputs": [
        {
          "internalType": "uint256",
          "name": "",
          "type": "uint256"
        }
      ],
      "name": "attestations",
      "outputs": [
        {
          "internalType": "uint256",
          "name": "schemaId",
          "type": "uint256"
        },
        {
          "internalType": "address",
          "name": "publisher",
          "type": "address"
        },
        {
          "internalType": "address",
          "name": "from",
          "type": "address"
        },
        {
          "internalType": "address",
          "name": "recipient",
          "type": "address"
        },
        {
          "internalType": "string",
          "name": "data",
          "type": "string"
        }
      ],
      "stateMutability": "view",
      "type": "function"
    },
    {
      "inputs": [
        {
          "internalType": "address",
          "name": "_publisher",
          "type": "address"
        }
      ],
      "name": "getAttestationsByPublisher",
      "outputs": [
        {
          "components": [
            {
              "internalType": "uint256",
              "name": "schemaId",
              "type": "uint256"
            },
            {
              "internalType": "address",
              "name": "publisher",
              "type": "address"
            },
            {
              "internalType": "address",
              "name": "from",
              "type": "address"
            },
            {
              "internalType": "address",
              "name": "recipient",
              "type": "address"
            },
            {
              "internalType": "string",
              "name": "data",
              "type": "string"
            }
          ],
          "internalType": "struct Attestation.AttestationRecord[]",
          "name": "",
          "type": "tuple[]"
        }
      ],
      "stateMutability": "view",
      "type": "function"
    },
    {
      "inputs": [
        {
          "internalType": "uint256",
          "name": "_schemaId",
          "type": "uint256"
        }
      ],
      "name": "getAttestationsBySchemaId",
      "outputs": [
        {
          "components": [
            {
              "internalType": "uint256",
              "name": "schemaId",
              "type": "uint256"
            },
            {
              "internalType": "address",
              "name": "publisher",
              "type": "address"
            },
            {
              "internalType": "address",
              "name": "from",
              "type": "address"
            },
            {
              "internalType": "address",
              "name": "recipient",
              "type": "address"
            },
            {
              "internalType": "string",
              "name": "data",
              "type": "string"
            }
          ],
          "internalType": "struct Attestation.AttestationRecord[]",
          "name": "",
          "type": "tuple[]"
        }
      ],
      "stateMutability": "view",
      "type": "function"
    },
    {
      "inputs": [
        {
          "internalType": "uint256",
          "name": "_schemaId",
          "type": "uint256"
        }
      ],
      "name": "getSchemaById",
      "outputs": [
        {
          "components": [
            {
              "internalType": "uint256",
              "name": "schemaId",
              "type": "uint256"
            },
            {
              "internalType": "address",
              "name": "creator",
              "type": "address"
            },
            {
              "internalType": "string",
              "name": "key",
              "type": "string"
            },
            {
              "internalType": "enum SchemaRegistry.SchemaType",
              "name": "schemaType",
              "type": "uint8"
            },
            {
              "internalType": "string",
              "name": "definition",
              "type": "string"
            }
          ],
          "internalType": "struct SchemaRegistry.Schema",
          "name": "",
          "type": "tuple"
        }
      ],
      "stateMutability": "view",
      "type": "function"
    },
    {
      "inputs": [],
      "name": "owner",
      "outputs": [
        {
          "internalType": "address",
          "name": "",
          "type": "address"
        }
      ],
      "stateMutability": "view",
      "type": "function"
    },
    {
      "inputs": [
        {
          "internalType": "string",
          "name": "_key",
          "type": "string"
        },
        {
          "internalType": "enum SchemaRegistry.SchemaType",
          "name": "_schemaType",
          "type": "uint8"
        },
        {
          "internalType": "string",
          "name": "_definition",
          "type": "string"
        }
      ],
      "name": "registerSchema",
      "outputs": [],
      "stateMutability": "nonpayable",
      "type": "function"
    },
    {
      "inputs": [],
      "name": "renounceOwnership",
      "outputs": [],
      "stateMutability": "nonpayable",
      "type": "function"
    },
    {
      "inputs": [
        {
          "internalType": "uint256",
          "name": "",
          "type": "uint256"
        }
      ],
      "name": "schemaIds",
      "outputs": [
        {
          "internalType": "bytes32",
          "name": "",
          "type": "bytes32"
        }
      ],
      "stateMutability": "view",
      "type": "function"
    },
    {
      "inputs": [
        {
          "internalType": "string",
          "name": "",
          "type": "string"
        }
      ],
      "name": "schemaTypes",
      "outputs": [
        {
          "internalType": "uint8",
          "name": "",
          "type": "uint8"
        }
      ],
      "stateMutability": "view",
      "type": "function"
    },
    {
      "inputs": [
        {
          "internalType": "bytes32",
          "name": "",
          "type": "bytes32"
        }
      ],
      "name": "schemas",
      "outputs": [
        {
          "internalType": "uint256",
          "name": "schemaId",
          "type": "uint256"
        },
        {
          "internalType": "address",
          "name": "creator",
          "type": "address"
        },
        {
          "internalType": "string",
          "name": "key",
          "type": "string"
        },
        {
          "internalType": "enum SchemaRegistry.SchemaType",
          "name": "schemaType",
          "type": "uint8"
        },
        {
          "internalType": "string",
          "name": "definition",
          "type": "string"
        }
      ],
      "stateMutability": "view",
      "type": "function"
    },
    {
      "inputs": [
        {
          "internalType": "address",
          "name": "newOwner",
          "type": "address"
        }
      ],
      "name": "transferOwnership",
      "outputs": [],
      "stateMutability": "nonpayable",
      "type": "function"
    }
  ],
  "bytecode": "0x608060405260006006553480156200001657600080fd5b50620000376200002b6200003d60201b60201c565b6200004560201b60201c565b62000109565b600033905090565b60008060009054906101000a900473ffffffffffffffffffffffffffffffffffffffff169050816000806101000a81548173ffffffffffffffffffffffffffffffffffffffff021916908373ffffffffffffffffffffffffffffffffffffffff1602179055508173ffffffffffffffffffffffffffffffffffffffff168173ffffffffffffffffffffffffffffffffffffffff167f8be0079c531659141344cd1fd0a4f28419497f9722a3daafe3b4186f6b6457e060405160405180910390a35050565b612af980620001196000396000f3fe608060405234801561001057600080fd5b50600436106101005760003560e01c806370a9f11d1161009757806388a83fb91161006657806388a83fb9146102d55780638da5cb5b14610305578063ca2adef614610323578063f2fde38b1461035757610100565b806370a9f11d14610277578063715018a614610293578063778fd92d1461029d578063825fd6a1146102b957610100565b8063204c0ef8116100d3578063204c0ef8146101c9578063256708e0146101f957806365c1881a1461022957806370a6b8ea1461025957610100565b806301daf26b146101055780630236ae0b1461013957806305d44b55146101695780631d31a56114610199575b600080fd5b61011f600480360381019061011a91906118d7565b610373565b6040516101309594939291906119e4565b60405180910390f35b610153600480360381019061014e9190611a3e565b6104a1565b6040516101609190611a7e565b60405180910390f35b610183600480360381019061017e91906118d7565b6104d2565b6040516101909190611ab2565b60405180910390f35b6101b360048036038101906101ae9190611af9565b6104ea565b6040516101c09190611a7e565b60405180910390f35b6101e360048036038101906101de91906118d7565b61051b565b6040516101f09190611c95565b60405180910390f35b610213600480360381019061020e9190611dec565b61076b565b6040516102209190611e51565b60405180910390f35b610243600480360381019061023e91906118d7565b6107a1565b6040516102509190611fa4565b60405180910390f35b610261610a8c565b60405161026e9190611fc6565b60405180910390f35b610291600480360381019061028c9190611fe8565b610ac5565b005b61029b610e91565b005b6102b760048036038101906102b291906120cb565b610ea5565b005b6102d360048036038101906102ce9190612150565b610f15565b005b6102ef60048036038101906102ea91906121db565b611145565b6040516102fc9190611fa4565b60405180910390f35b61030d61145c565b60405161031a9190612208565b60405180910390f35b61033d6004803603810190610338919061224f565b611485565b60405161034e95949392919061228b565b60405180910390f35b610371600480360381019061036c91906121db565b6115f8565b005b6005818154811061038357600080fd5b90600052602060002090600502016000915090508060000154908060010160009054906101000a900473ffffffffffffffffffffffffffffffffffffffff16908060020160009054906101000a900473ffffffffffffffffffffffffffffffffffffffff16908060030160009054906101000a900473ffffffffffffffffffffffffffffffffffffffff169080600401805461041e9061231b565b80601f016020809104026020016040519081016040528092919081815260200182805461044a9061231b565b80156104975780601f1061046c57610100808354040283529160200191610497565b820191906000526020600020905b81548152906001019060200180831161047a57829003601f168201915b5050505050905085565b600760205281600052604060002081815481106104bd57600080fd5b90600052602060002001600091509150505481565b60046020528060005260406000206000915090505481565b6008602052816000526040600020818154811061050657600080fd5b90600052602060002001600091509150505481565b6105236117c5565b6000600460008481526020019081526020016000205490506000801b8103610580576040517f08c379a000000000000000000000000000000000000000000000000000000000815260040161057790612398565b60405180910390fd5b6000600360008381526020019081526020016000209050806040518060a0016040529081600082015481526020016001820160009054906101000a900473ffffffffffffffffffffffffffffffffffffffff1673ffffffffffffffffffffffffffffffffffffffff1673ffffffffffffffffffffffffffffffffffffffff1681526020016002820180546106139061231b565b80601f016020809104026020016040519081016040528092919081815260200182805461063f9061231b565b801561068c5780601f106106615761010080835404028352916020019161068c565b820191906000526020600020905b81548152906001019060200180831161066f57829003601f168201915b505050505081526020016003820160009054906101000a900460ff1660028111156106ba576106b9611ba1565b5b60028111156106cc576106cb611ba1565b5b81526020016004820180546106e09061231b565b80601f016020809104026020016040519081016040528092919081815260200182805461070c9061231b565b80156107595780601f1061072e57610100808354040283529160200191610759565b820191906000526020600020905b81548152906001019060200180831161073c57829003601f168201915b50505050508152505092505050919050565b6002818051602081018201805184825260208301602085012081835280955050505050506000915054906101000a900460ff1681565b606060006007600084815260200190815260200160002080548060200260200160405190810160405280929190818152602001828054801561080257602002820191906000526020600020905b8154815260200190600101908083116107ee575b5050505050905060008151905060008167ffffffffffffffff81111561082b5761082a611cc1565b5b60405190808252806020026020018201604052801561086457816020015b61085161181c565b8152602001906001900390816108495790505b50905060005b82811015610a80576005848281518110610887576108866123b8565b5b6020026020010151815481106108a05761089f6123b8565b5b90600052602060002090600502016040518060a0016040529081600082015481526020016001820160009054906101000a900473ffffffffffffffffffffffffffffffffffffffff1673ffffffffffffffffffffffffffffffffffffffff1673ffffffffffffffffffffffffffffffffffffffff1681526020016002820160009054906101000a900473ffffffffffffffffffffffffffffffffffffffff1673ffffffffffffffffffffffffffffffffffffffff1673ffffffffffffffffffffffffffffffffffffffff1681526020016003820160009054906101000a900473ffffffffffffffffffffffffffffffffffffffff1673ffffffffffffffffffffffffffffffffffffffff1673ffffffffffffffffffffffffffffffffffffffff1681526020016004820180546109d59061231b565b80601f0160208091040260200160405190810160405280929190818152602001828054610a019061231b565b8015610a4e5780601f10610a2357610100808354040283529160200191610a4e565b820191906000526020600020905b815481529060010190602001808311610a3157829003601f168201915b505050505081525050828281518110610a6a57610a696123b8565b5b602002602001018190525080600101905061086a565b50809350505050919050565b6040518060400160405280600581526020017f302e312e3000000000000000000000000000000000000000000000000000000081525081565b600073ffffffffffffffffffffffffffffffffffffffff168473ffffffffffffffffffffffffffffffffffffffff1614158015610b2f5750600073ffffffffffffffffffffffffffffffffffffffff168473ffffffffffffffffffffffffffffffffffffffff1614155b610b6e576040517f08c379a0000000000000000000000000000000000000000000000000000000008152600401610b6590612433565b60405180910390fd5b6000801b600460008481526020019081526020016000205403610bc6576040517f08c379a0000000000000000000000000000000000000000000000000000000008152600401610bbd9061249f565b60405180910390fd5b60056040518060a001604052808481526020013373ffffffffffffffffffffffffffffffffffffffff1681526020018673ffffffffffffffffffffffffffffffffffffffff1681526020018573ffffffffffffffffffffffffffffffffffffffff1681526020018381525090806001815401808255809150506001900390600052602060002090600502016000909190919091506000820151816000015560208201518160010160006101000a81548173ffffffffffffffffffffffffffffffffffffffff021916908373ffffffffffffffffffffffffffffffffffffffff16021790555060408201518160020160006101000a81548173ffffffffffffffffffffffffffffffffffffffff021916908373ffffffffffffffffffffffffffffffffffffffff16021790555060608201518160030160006101000a81548173ffffffffffffffffffffffffffffffffffffffff021916908373ffffffffffffffffffffffffffffffffffffffff1602179055506080820151816004019081610d4e919061266b565b505050600860003373ffffffffffffffffffffffffffffffffffffffff1673ffffffffffffffffffffffffffffffffffffffff168152602001908152602001600020600654908060018154018082558091505060019003906000526020600020016000909190919091505560076000838152602001908152602001600020600654908060018154018082558091505060019003906000526020600020016000909190919091505560066000815480929190610e089061276c565b91905055508273ffffffffffffffffffffffffffffffffffffffff168473ffffffffffffffffffffffffffffffffffffffff163373ffffffffffffffffffffffffffffffffffffffff167fd6f2f1f9f00c1a828576c8beb3e28f877873b15b6c42f9936373330add8e4a3a8585604051610e839291906127b4565b60405180910390a450505050565b610e9961167b565b610ea360006116f9565b565b600082829050905060005b81811015610f0e576000848483818110610ecd57610ecc6123b8565b5b9050602002810190610edf91906127e9565b610ee8906128c3565b9050610f0281604001518260600151888460800151610ac5565b81600101915050610eb0565b5050505050565b610f1d61167b565b60003384604051602001610f329291906128d6565b6040516020818303038152906040528051906020012090506000600360008381526020019081526020016000206000015414610fa3576040517f08c379a0000000000000000000000000000000000000000000000000000000008152600401610f9a90612952565b60405180910390fd5b60016000815480929190610fb69061276c565b91905055506040518060a0016040528060015481526020013373ffffffffffffffffffffffffffffffffffffffff16815260200185815260200184600281111561100357611002611ba1565b5b815260200183815250600360008381526020019081526020016000206000820151816000015560208201518160010160006101000a81548173ffffffffffffffffffffffffffffffffffffffff021916908373ffffffffffffffffffffffffffffffffffffffff1602179055506040820151816002019081611085919061266b565b5060608201518160030160006101000a81548160ff021916908360028111156110b1576110b0611ba1565b5b021790555060808201518160040190816110cb919061266b565b5090505080600460006001548152602001908152602001600020819055503373ffffffffffffffffffffffffffffffffffffffff167f4827ee899bbb2ef7cf9a4ceca0ac3ecd352cc30906e6399b7e41fe2ce18a97f46001548686866040516111379493929190612972565b60405180910390a250505050565b60606000600860008473ffffffffffffffffffffffffffffffffffffffff1673ffffffffffffffffffffffffffffffffffffffff1681526020019081526020016000208054806020026020016040519081016040528092919081815260200182805480156111d257602002820191906000526020600020905b8154815260200190600101908083116111be575b5050505050905060008151905060008167ffffffffffffffff8111156111fb576111fa611cc1565b5b60405190808252806020026020018201604052801561123457816020015b61122161181c565b8152602001906001900390816112195790505b50905060005b82811015611450576005848281518110611257576112566123b8565b5b6020026020010151815481106112705761126f6123b8565b5b90600052602060002090600502016040518060a0016040529081600082015481526020016001820160009054906101000a900473ffffffffffffffffffffffffffffffffffffffff1673ffffffffffffffffffffffffffffffffffffffff1673ffffffffffffffffffffffffffffffffffffffff1681526020016002820160009054906101000a900473ffffffffffffffffffffffffffffffffffffffff1673ffffffffffffffffffffffffffffffffffffffff1673ffffffffffffffffffffffffffffffffffffffff1681526020016003820160009054906101000a900473ffffffffffffffffffffffffffffffffffffffff1673ffffffffffffffffffffffffffffffffffffffff1673ffffffffffffffffffffffffffffffffffffffff1681526020016004820180546113a59061231b565b80601f01602080910402602001604051908101604052809291908181526020018280546113d19061231b565b801561141e5780601f106113f35761010080835404028352916020019161141e565b820191906000526020600020905b81548152906001019060200180831161140157829003601f168201915b50505050508152505082828151811061143a576114396123b8565b5b602002602001018190525080600101905061123a565b50809350505050919050565b60008060009054906101000a900473ffffffffffffffffffffffffffffffffffffffff16905090565b60036020528060005260406000206000915090508060000154908060010160009054906101000a900473ffffffffffffffffffffffffffffffffffffffff16908060020180546114d49061231b565b80601f01602080910402602001604051908101604052809291908181526020018280546115009061231b565b801561154d5780601f106115225761010080835404028352916020019161154d565b820191906000526020600020905b81548152906001019060200180831161153057829003601f168201915b5050505050908060030160009054906101000a900460ff16908060040180546115759061231b565b80601f01602080910402602001604051908101604052809291908181526020018280546115a19061231b565b80156115ee5780601f106115c3576101008083540402835291602001916115ee565b820191906000526020600020905b8154815290600101906020018083116115d157829003601f168201915b5050505050905085565b61160061167b565b600073ffffffffffffffffffffffffffffffffffffffff168173ffffffffffffffffffffffffffffffffffffffff160361166f576040517f08c379a000000000000000000000000000000000000000000000000000000000815260040161166690612a37565b60405180910390fd5b611678816116f9565b50565b6116836117bd565b73ffffffffffffffffffffffffffffffffffffffff166116a161145c565b73ffffffffffffffffffffffffffffffffffffffff16146116f7576040517f08c379a00000000000000000000000000000000000000000000000000000000081526004016116ee90612aa3565b60405180910390fd5b565b60008060009054906101000a900473ffffffffffffffffffffffffffffffffffffffff169050816000806101000a81548173ffffffffffffffffffffffffffffffffffffffff021916908373ffffffffffffffffffffffffffffffffffffffff1602179055508173ffffffffffffffffffffffffffffffffffffffff168173ffffffffffffffffffffffffffffffffffffffff167f8be0079c531659141344cd1fd0a4f28419497f9722a3daafe3b4186f6b6457e060405160405180910390a35050565b600033905090565b6040518060a0016040528060008152602001600073ffffffffffffffffffffffffffffffffffffffff168152602001606081526020016000600281111561180f5761180e611ba1565b5b8152602001606081525090565b6040518060a0016040528060008152602001600073ffffffffffffffffffffffffffffffffffffffff168152602001600073ffffffffffffffffffffffffffffffffffffffff168152602001600073ffffffffffffffffffffffffffffffffffffffff168152602001606081525090565b6000604051905090565b600080fd5b600080fd5b6000819050919050565b6118b4816118a1565b81146118bf57600080fd5b50565b6000813590506118d1816118ab565b92915050565b6000602082840312156118ed576118ec611897565b5b60006118fb848285016118c2565b91505092915050565b61190d816118a1565b82525050565b600073ffffffffffffffffffffffffffffffffffffffff82169050919050565b600061193e82611913565b9050919050565b61194e81611933565b82525050565b600081519050919050565b600082825260208201905092915050565b60005b8381101561198e578082015181840152602081019050611973565b60008484015250505050565b6000601f19601f8301169050919050565b60006119b682611954565b6119c0818561195f565b93506119d0818560208601611970565b6119d98161199a565b840191505092915050565b600060a0820190506119f96000830188611904565b611a066020830187611945565b611a136040830186611945565b611a206060830185611945565b8181036080830152611a3281846119ab565b90509695505050505050565b60008060408385031215611a5557611a54611897565b5b6000611a63858286016118c2565b9250506020611a74858286016118c2565b9150509250929050565b6000602082019050611a936000830184611904565b92915050565b6000819050919050565b611aac81611a99565b82525050565b6000602082019050611ac76000830184611aa3565b92915050565b611ad681611933565b8114611ae157600080fd5b50565b600081359050611af381611acd565b92915050565b60008060408385031215611b1057611b0f611897565b5b6000611b1e85828601611ae4565b9250506020611b2f858286016118c2565b9150509250929050565b611b42816118a1565b82525050565b611b5181611933565b82525050565b600082825260208201905092915050565b6000611b7382611954565b611b7d8185611b57565b9350611b8d818560208601611970565b611b968161199a565b840191505092915050565b7f4e487b7100000000000000000000000000000000000000000000000000000000600052602160045260246000fd5b60038110611be157611be0611ba1565b5b50565b6000819050611bf282611bd0565b919050565b6000611c0282611be4565b9050919050565b611c1281611bf7565b82525050565b600060a083016000830151611c306000860182611b39565b506020830151611c436020860182611b48565b5060408301518482036040860152611c5b8282611b68565b9150506060830151611c706060860182611c09565b5060808301518482036080860152611c888282611b68565b9150508091505092915050565b60006020820190508181036000830152611caf8184611c18565b905092915050565b600080fd5b600080fd5b7f4e487b7100000000000000000000000000000000000000000000000000000000600052604160045260246000fd5b611cf98261199a565b810181811067ffffffffffffffff82111715611d1857611d17611cc1565b5b80604052505050565b6000611d2b61188d565b9050611d378282611cf0565b919050565b600067ffffffffffffffff821115611d5757611d56611cc1565b5b611d608261199a565b9050602081019050919050565b82818337600083830152505050565b6000611d8f611d8a84611d3c565b611d21565b905082815260208101848484011115611dab57611daa611cbc565b5b611db6848285611d6d565b509392505050565b600082601f830112611dd357611dd2611cb7565b5b8135611de3848260208601611d7c565b91505092915050565b600060208284031215611e0257611e01611897565b5b600082013567ffffffffffffffff811115611e2057611e1f61189c565b5b611e2c84828501611dbe565b91505092915050565b600060ff82169050919050565b611e4b81611e35565b82525050565b6000602082019050611e666000830184611e42565b92915050565b600081519050919050565b600082825260208201905092915050565b6000819050602082019050919050565b600060a083016000830151611eb06000860182611b39565b506020830151611ec36020860182611b48565b506040830151611ed66040860182611b48565b506060830151611ee96060860182611b48565b5060808301518482036080860152611f018282611b68565b9150508091505092915050565b6000611f1a8383611e98565b905092915050565b6000602082019050919050565b6000611f3a82611e6c565b611f448185611e77565b935083602082028501611f5685611e88565b8060005b85811015611f925784840389528151611f738582611f0e565b9450611f7e83611f22565b925060208a01995050600181019050611f5a565b50829750879550505050505092915050565b60006020820190508181036000830152611fbe8184611f2f565b905092915050565b60006020820190508181036000830152611fe081846119ab565b905092915050565b6000806000806080858703121561200257612001611897565b5b600061201087828801611ae4565b945050602061202187828801611ae4565b9350506040612032878288016118c2565b925050606085013567ffffffffffffffff8111156120535761205261189c565b5b61205f87828801611dbe565b91505092959194509250565b600080fd5b600080fd5b60008083601f84011261208b5761208a611cb7565b5b8235905067ffffffffffffffff8111156120a8576120a761206b565b5b6020830191508360208202830111156120c4576120c3612070565b5b9250929050565b6000806000604084860312156120e4576120e3611897565b5b60006120f2868287016118c2565b935050602084013567ffffffffffffffff8111156121135761211261189c565b5b61211f86828701612075565b92509250509250925092565b6003811061213857600080fd5b50565b60008135905061214a8161212b565b92915050565b60008060006060848603121561216957612168611897565b5b600084013567ffffffffffffffff8111156121875761218661189c565b5b61219386828701611dbe565b93505060206121a48682870161213b565b925050604084013567ffffffffffffffff8111156121c5576121c461189c565b5b6121d186828701611dbe565b9150509250925092565b6000602082840312156121f1576121f0611897565b5b60006121ff84828501611ae4565b91505092915050565b600060208201905061221d6000830184611945565b92915050565b61222c81611a99565b811461223757600080fd5b50565b60008135905061224981612223565b92915050565b60006020828403121561226557612264611897565b5b60006122738482850161223a565b91505092915050565b61228581611bf7565b82525050565b600060a0820190506122a06000830188611904565b6122ad6020830187611945565b81810360408301526122bf81866119ab565b90506122ce606083018561227c565b81810360808301526122e081846119ab565b90509695505050505050565b7f4e487b7100000000000000000000000000000000000000000000000000000000600052602260045260246000fd5b6000600282049050600182168061233357607f821691505b602082108103612346576123456122ec565b5b50919050565b7f496e76616c696420536368656d61204964000000000000000000000000000000600082015250565b600061238260118361195f565b915061238d8261234c565b602082019050919050565b600060208201905081810360008301526123b181612375565b9050919050565b7f4e487b7100000000000000000000000000000000000000000000000000000000600052603260045260246000fd5b7f5a65726f20616464726573736573206e6f7420616c6c6f776564000000000000600082015250565b600061241d601a8361195f565b9150612428826123e7565b602082019050919050565b6000602082019050818103600083015261244c81612410565b9050919050565b7f496e76616c6964205f736368656d614964000000000000000000000000000000600082015250565b600061248960118361195f565b915061249482612453565b602082019050919050565b600060208201905081810360008301526124b88161247c565b9050919050565b60008190508160005260206000209050919050565b60006020601f8301049050919050565b600082821b905092915050565b6000600883026125217fffffffffffffffffffffffffffffffffffffffffffffffffffffffffffffffff826124e4565b61252b86836124e4565b95508019841693508086168417925050509392505050565b6000819050919050565b600061256861256361255e846118a1565b612543565b6118a1565b9050919050565b6000819050919050565b6125828361254d565b61259661258e8261256f565b8484546124f1565b825550505050565b600090565b6125ab61259e565b6125b6818484612579565b505050565b5b818110156125da576125cf6000826125a3565b6001810190506125bc565b5050565b601f82111561261f576125f0816124bf565b6125f9846124d4565b81016020851015612608578190505b61261c612614856124d4565b8301826125bb565b50505b505050565b600082821c905092915050565b600061264260001984600802612624565b1980831691505092915050565b600061265b8383612631565b9150826002028217905092915050565b61267482611954565b67ffffffffffffffff81111561268d5761268c611cc1565b5b612697825461231b565b6126a28282856125de565b600060209050601f8311600181146126d557600084156126c3578287015190505b6126cd858261264f565b865550612735565b601f1984166126e3866124bf565b60005b8281101561270b578489015182556001820191506020850194506020810190506126e6565b868310156127285784890151612724601f891682612631565b8355505b6001600288020188555050505b505050505050565b7f4e487b7100000000000000000000000000000000000000000000000000000000600052601160045260246000fd5b6000612777826118a1565b91507fffffffffffffffffffffffffffffffffffffffffffffffffffffffffffffffff82036127a9576127a861273d565b5b600182019050919050565b60006040820190506127c96000830185611904565b81810360208301526127db81846119ab565b90509392505050565b600080fd5b60008235600160a003833603038112612805576128046127e4565b5b80830191505092915050565b600080fd5b600080fd5b600060a0828403121561283157612830612811565b5b61283b60a0611d21565b9050600061284b848285016118c2565b600083015250602061285f84828501611ae4565b602083015250604061287384828501611ae4565b604083015250606061288784828501611ae4565b606083015250608082013567ffffffffffffffff8111156128ab576128aa612816565b5b6128b784828501611dbe565b60808301525092915050565b60006128cf368361281b565b9050919050565b60006040820190506128eb6000830185611945565b81810360208301526128fd81846119ab565b90509392505050565b7f536368656d6120616c7265616479206578697374730000000000000000000000600082015250565b600061293c60158361195f565b915061294782612906565b602082019050919050565b6000602082019050818103600083015261296b8161292f565b9050919050565b60006080820190506129876000830187611904565b818103602083015261299981866119ab565b90506129a8604083018561227c565b81810360608301526129ba81846119ab565b905095945050505050565b7f4f776e61626c653a206e6577206f776e657220697320746865207a65726f206160008201527f6464726573730000000000000000000000000000000000000000000000000000602082015250565b6000612a2160268361195f565b9150612a2c826129c5565b604082019050919050565b60006020820190508181036000830152612a5081612a14565b9050919050565b7f4f776e61626c653a2063616c6c6572206973206e6f7420746865206f776e6572600082015250565b6000612a8d60208361195f565b9150612a9882612a57565b602082019050919050565b60006020820190508181036000830152612abc81612a80565b905091905056fea264697066735822122063cae682569e35858eb9c85ee00075b7b6b910b6b088740c5af5864c52a55f8464736f6c63430008120033",
  "linkReferences": {},
  "deployedLinkReferences": {}
}